:1000000036C05AC003C10CC115C156C055C054C03A
:1000100053C052C051C02CC54FC04EC04DC04CC083
:100020004BC01112131415160A0B0C0D0E0F000104
:1000300002030405000001020304000000000000A8
:10004000000102048040201008040201080202029C
:100050000101010101010101020000390036000027
:10006000003B00380000003A003700002E01112448
:100070001FBECFE5D2E0DEBFCDBF10E0A0E6B0E00E
:10008000E2E9FDE002C005900D92A636B107D9F76E
:1000900020E0A6E6B0E001C01D92A738B207E1F764
:1000A00010E0C7E3D0E003C02197FE0161D6C6335C
:1000B000D107D1F757D66BC6A3CF60E089E0B0D5A2
:1000C00060E08AE0ADD58BB780618BBF909A0895D0
:1000D00086E690E08CC1EF92FF920F931F9386E625
:1000E00090E050D463E086E690E06AD262E070E08F
:1000F00086E690E07BD261E070E086E690E0AED2EA
:1001000061E086E690E055D24FE06FE086E690E051
:10011000BFD202ED10EF20EF30EF40EF50E060E093
:1001200070E086E690E088D181EEE82E90EFF92E1F
:1001300000EF20EF30E040E050E061E086E690E044
:10014000B3D186E690E01F910F91FF90EF906DC3C1
:10015000CF92DF92EF92FF92CF93DF9300D000D047
:10016000CDB7DEB786E690E08BD346E060E670E080
:1001700086E690E0DAD386E690E057D3C3D46B01ED
:100180007C0186E690E0EFD381110DC0BBD4DC0189
:10019000CB018C199D09AE09BF0981349D40A34054
:1001A000B10578F307C044E0BE016F5F7F4F86E67C
:1001B00090E014D30F900F900F900F90DF91CF919C
:1001C000FF90EF90DF90CF9008958BB780618BBF49
:1001D000909A379885B7877E806185BF85B78062A2
:1001E00085BF78948895F894909885B78F7D85BF62
:1001F000379A789408956FDFABDF6ADFE6DF8AE035
:1002000087D5892BD9F386E690E000C11F920F9223
:100210000FB60F9211240F900FBE0F901F901895DC
:100220001F920F920FB60F9211240F900FBE0F90D6
:100230001F9018951F920F920FB60F9211248F9353
:100240000FB6F894A89581B5886181BD11BC0FBE29
:100250008F910F900FBE0F901F90189547E050E0C0
:1002600068E070E086E690E023C0FC0122813381E3
:10027000808191818217930711F0822F0FC5662329
:1002800021F0C29A84E690E003C0C2988BE090E02F
:1002900085C4FC012081318182819381281739072F
:1002A00011F0822FFBC4089560E0DFCF61E0DDCF65
:1002B000FC017183608353834283168280E28783CB
:1002C000108685E0868785E090E0A0E0B0E0848B32
:1002D000958BA68BB78B1186089561E086E0A0D43C
:1002E00061E085E09DD460E084E09AD480E18DB93E
:1002F00008958FB980E48EB98BE18DB9769BFDCFDF
:100300008FB10895EF92FF921F93CF93DF931F92C7
:10031000CDB7DEB77C016983C7DF6981862F8F7116
:10032000E8DF8FEFE6DF182FC701C0DF812F0F90C6
:10033000DF91CF911F91FF90EF900895CF92DF92C0
:10034000EF92FF920F931F93CF93DF9300D01F92F2
:10035000CDB7DEB77C01142F2A835B836983A4DFCA
:100360006981862F8F718062C4DF082FC12E5B8167
:10037000D52E2A81120F1C1529F0F60181916F01EB
:10038000B8DFF9CFC70192DF802F0F900F900F9049
:10039000DF91CF911F910F91FF90EF90DF90CF9061
:1003A0000895EF92FF921F93CF93DF9300D0CDB7C4
:1003B000DEB77C014A83698377DF6981862F8F717D
:1003C000806297DF182F4A81842F93DFC7016EDF89
:1003D000812F0F900F90DF91CF911F91FF90EF90A1
:1003E0000895462F6E3708F04DE765E0DACFCF93DA
:1003F000DF93EC0160E04DDF60E0CE0183DF482F4A
:100400004D7F60E0CE01DF91CF91CBCFCF93DF93D3
:10041000EC0160E077DF81FD0CC0482F426060E0B6
:10042000CE01BFDF65E070E080E090E0DF91CF912A
:1004300090C3DF91CF910895EF92FF920F931F9396
:10044000CF93DF93CDB7DEB728970FB6F894DEBF12
:100450000FBECDBF7C0109831A832B833C834D8360
:100460005E836F837887FC012685AE014F5F5F4F07
:100470006AE064DFF7012685AE014F5F5F4F60E100
:10048000C7015CDFF701478161E1C7018ADF289678
:100490000FB6F894DEBF0FBECDBFDF91CF911F9195
:1004A0000F91FF90EF900895AF92BF92DF92EF927D
:1004B000FF920F931F93CF93DF93CDB7DEB72897AB
:1004C0000FB6F894DEBF0FBECDBF5C01D62EE98219
:1004D000FA820B831C832D833E834F8358876111DF
:1004E00009C0FC01468550E0BE016F5F7F4F099651
:1004F00045D406C0F6E0F61788F181E0681308C01D
:10050000ED2DF0E0E85DFF4F6491F501268506C012
:10051000E62FF0E0E85DFF4F649121E0AE014F5F10
:100520005F4FC5010BDF0D2D10E0F801EE5DFF4FB1
:100530006491F5014781C50134DF62E0C501E2DE67
:10054000F801E25DFF4FE49141E050E001C0440F4B
:10055000EA95EAF7482B62E0C50123DF28960FB63B
:10056000F894DEBF0FBECDBFDF91CF911F910F91E9
:10057000FF90EF90DF90BF90AF9008950F931F937F
:10058000CF938C01C62F62E0BDDEEC2FF0E0E25D80
:10059000FF4FE49121E030E001C0220FEA95EAF735
:1005A0002095422F482362E0C801CF911F910F91FF
:1005B000F8CE662311F04FE301C040E061E0F1CED8
:1005C0000F931F93CF938C01C62F66E09BDE887F2D
:1005D000C43018F4CC0FCF5F01C0C7E04C2F482BBC
:1005E00066E0C801CF911F910F91DBCEEF92FF9291
:1005F0000F931F93CF938C017B0166E083DEC82F9E
:10060000C77D82E0E816F10431F4C0628BE990E026
:10061000A0E0B0E00DC0EA94EF2829F085E590E075
:10062000A0E0B0E005C0C86081E490E0A0E0B0E0E8
:10063000F801808B918BA28BB38B4C2F66E0C801A5
:10064000B0DE66E0C8015EDE91E08C1390E0892F99
:10065000CF911F910F91FF90EF9008950F931F93EB
:10066000CF93DF93EC018B0160E04CDE482F437F9A
:100670000115110531F00130110511F4486001C078
:100680004C6060E0CE01DF91CF911F910F9189CE38
:100690006295607F4F70462B64E083CEBF92CF920D
:1006A000DF92EF92FF920F931F93CF93DF9300D0CF
:1006B0001F92CDB7DEB77C01FC01C780B42EC416F3
:1006C00008F4BC2CF7018085811102C0CB1801C051
:1006D000C12CC70129836A837B83E6DD2981822FB0
:1006E00008DED82E6A81062F7B81172FB60EB01632
:1006F00029F0F80181918F01FCDDF9CFCC2021F0A8
:1007000080E0F7DDCA94FACFC701D0DD8D2D0F90C0
:100710000F900F90DF91CF911F910F91FF90EF906D
:10072000DF90CF90BF9008950F93CF93DF93EC01AC
:10073000211102C020EA01C020EBCE01AFDF00236F
:1007400031F061E0CE01DF91CF910F91A2CDDF9129
:10075000CF910F910895BF92CF92DF92EF92FF92C7
:100760000F931F93CF93DF9300D0CDB7DEB77C01FB
:10077000FC01C780B42EC41608F4BC2CF701808598
:10078000811102C0CB1801C0C12CC70169837A83D3
:100790008BDD81E6AEDDD82E6981062F7A81172F99
:1007A000B60EB01631F08FEFA4DDF80181938F0102
:1007B000F8CFCC2021F08FEF9CDDCA94FACFC7018F
:1007C00075DD8D2D0F900F90DF91CF911F910F91BF
:1007D000FF90EF90DF90CF90BF900895CF93DF937D
:1007E000EC01B9DF40E767E0CE01DF91CF91D9CDD1
:1007F000EF92FF921F93CF93DF931F92CDB7DEB797
:100800007C01698351DD6981862F73DD182FC70153
:100810004DDD812F0F90DF91CF911F91FF90EF90D1
:10082000089562EEE5CF61EEE3CFCF93DF93EC0165
:1008300060E068DD482F416060E0CE01B2DD40E756
:1008400067E0CE01AEDD61E0CE0123DD898588233E
:1008500041F02E85AE01475F5F4F6AE0CE016EDD4D
:1008600003C060E0CE018ADE6DE1CE014BDD81FF89
:1008700004C0CE01DF91CF91D6CFDF91CF91089503
:10088000CF93DF93EC0160E004DD8889998986D1FC
:100890006DE1CE0137DD81FF05C0888999897ED160
:1008A000CE01C1DF60E0CE012DDD482F4E7F60E03C
:1008B000CE0177DD288139818A819B81281739070C
:1008C00021F4CE0194DDCE01A1DD62E0CE011ADD7E
:1008D000EEE2F0E0E49141E050E001C0440FEA951F
:1008E000EAF7482B62E0CE01DF91CF915ACD6FEF4E
:1008F0007FCF0F93CF93DF93EC0101E015DFCE01A3
:10090000F6DF8073E1F360E0CE01C3DC40E767E02F
:10091000CE0147DD84FF04C0CE0185DF80E001C049
:1009200081E0DF91CF910F91089520E0E2CF0F9306
:100930001F93CF93DF938C01EB0167E1E3DC80FD34
:100940000AC0209751F0C801D2DF90E095958795B5
:100950008770888302C080E001C081E0DF91CF9181
:100960001F910F91089560E070E0E1CFCF93DF9386
:10097000EC019ADC80E5BDDC83E7BBDCCE01DF91D6
:10098000CF9194CC1F93CF93DF93EC018881998111
:100990002A813B818217930711F061E041D18A815E
:1009A0009B81288139812817390711F061E038D1FE
:1009B00094DC60E0CE016DDC61E0CE0156DC65E0E8
:1009C00070E080E090E0C5D04CE060E0CE01E9DC72
:1009D0004FE564E0CE01E5DC62E070E0CE0106DECA
:1009E000882311F081E08E8366E0CE018BDC182F26
:1009F00060E070E0CE01FADDCE01B8DF40E06DE1ED
:100A0000CE01CFDC40E06CE1CE01CBDC188640E7C4
:100A100067E0CE01C6DC6CE4CE01E3DCCE0101DF91
:100A2000CE0101DFCE01F2DC60E0CE016BDC482FAD
:100A30004E7F60E0CE01B5DC115081E01E3F08F032
:100A400080E0DF91CF911F9108958EB5887F8EBD94
:100A50008FB581608FBD8FB58D7F8FBD8EB5877F40
:100A60008EBD8EB58F7E8EBD8EB582608EBD089593
:100A70001F920F920FB60F9211242F933F938F93D3
:100A80009F93AF93BF9380917F0090918000A0913E
:100A90008100B091820030917E0026E0230F2D3737
:100AA00030F029E8230F0396A11DB11D03C0029663
:100AB000A11DB11D20937E0080937F009093800044
:100AC000A0938100B0938200809183009091840074
:100AD000A0918500B09186000196A11DB11D809363
:100AE000830090938400A0938500B0938600BF910B
:100AF000AF919F918F913F912F910F900FBE0F90CB
:100B00001F9018953FB7F8948091830090918400CE
:100B1000A0918500B091860022B708B600FE05C0FE
:100B20002F3F19F00196A11DB11D3FBFBA2FA92F6C
:100B3000982F8827820F911DA11DB11DBC01CD01E9
:100B400043E0660F771F881F991F4A95D1F70895D4
:100B50000895CF92DF92EF92FF92CF93DF936B01D4
:100B60007C01D0DFEB01C114D104E104F10479F080
:100B7000EFDFC8DF6C1B7D0B683E7340A0F381E0A4
:100B8000C81AD108E108F108C851DC4FF2CFDF9153
:100B9000CF91FF90EF90DF90CF9008958A3191052B
:100BA00038F0469796958795969587950197F1F732
:100BB000089580B7826080BF80B7816080BF83B7AF
:100BC000887F826083BF789489B7816089BF3DDF69
:100BD00086B18877836886B9379A0895813031F471
:100BE00080B78F7780BF80B78F7B07C0823039F4A2
:100BF00080B78F7D80BF80B78F7E80BF08958330A0
:100C000031F48FB58F778FBD8FB58F7B07C0843060
:100C100031F48FB58F7D8FBD8FB58F7E8FBD0895D9
:100C2000CF93DF9387FD8FEF90E0FC01EF5BFF4FE9
:100C30002491FC01E35BFF4F8491882361F190E0F4
:100C4000880F991FFC01EB59FF4FC591D491FC010E
:100C5000E15AFF4FA591B491611109C09FB7F89473
:100C60008881209582238883EC912E230BC06230EB
:100C700061F49FB7F8943881822F8095832388830D
:100C8000EC912E2B2C939FBF06C08FB7F894E88170
:100C90002E2B28838FBFDF91CF9108950F931F9341
:100CA000CF93DF931F92CDB7DEB787FD8FEF282F4D
:100CB00030E0F901EC5CFF4F8491F901EF5BFF4FED
:100CC0001491F901E35BFF4F04910023D9F08823CD
:100CD00019F0698383DF6981E02FF0E0EE0FFF1FD9
:100CE000E15AFF4FA591B4918FB7611106C0F894F6
:100CF0009C91E12FE095E92303C0F894EC91E12B5E
:100D0000EC938FBF0F90DF91CF911F910F910895BA
:100D1000CF93DF9387FD8FEF282F30E0F901EC5C54
:100D2000FF4F8491F901EF5BFF4FD491F901E35B31
:100D3000FF4FC491CC2389F0811150DFEC2FF0E0FC
:100D4000EE0FFF1FE75AFF4FA591B491EC91ED23F1
:100D500081E090E021F480E002C080E090E0DF914B
:100D6000CF91089581B781BF24DFA7D944DAFECFA0
:100D7000EE0FFF1F0590F491E02D0994FB01DC01BB
:100D800002C001900D9241505040D8F70895F89458
:020D9000FFCF93
:060D92004444303030370C
:0200000002C03C
:00000001FF
